{
  "_format": "hh-sol-artifact-1",
  "contractName": "VedaLedgerVerifier",
  "sourceName": "contracts/VedaLedgerVerifier.sol",
  "abi": [
    {
      "inputs": [
        {
          "internalType": "address",
          "name": "_core",
          "type": "address"
        }
      ],
      "stateMutability": "nonpayable",
      "type": "constructor"
    },
    {
      "inputs": [],
      "name": "ProofInvalid",
      "type": "error"
    },
    {
      "inputs": [],
      "name": "Unauthorized",
      "type": "error"
    },
    {
      "anonymous": false,
      "inputs": [
        {
          "indexed": true,
          "internalType": "uint256",
          "name": "batchId",
          "type": "uint256"
        },
        {
          "indexed": true,
          "internalType": "bytes32",
          "name": "proofHash",
          "type": "bytes32"
        }
      ],
      "name": "VerificationSuccess",
      "type": "event"
    },
    {
      "inputs": [],
      "name": "coreAddress",
      "outputs": [
        {
          "internalType": "address",
          "name": "",
          "type": "address"
        }
      ],
      "stateMutability": "view",
      "type": "function"
    },
    {
      "inputs": [
        {
          "internalType": "uint256",
          "name": "_batchId",
          "type": "uint256"
        },
        {
          "internalType": "bytes32",
          "name": "_commitment",
          "type": "bytes32"
        },
        {
          "internalType": "bytes32",
          "name": "_secretSalt",
          "type": "bytes32"
        },
        {
          "internalType": "uint8",
          "name": "_purityLevel",
          "type": "uint8"
        }
      ],
      "name": "verifyQualityCommitment",
      "outputs": [
        {
          "internalType": "bool",
          "name": "",
          "type": "bool"
        }
      ],
      "stateMutability": "view",
      "type": "function"
    }
  ],
  "bytecode": "0x6080604052348015600f57600080fd5b506040516102d33803806102d3833981016040819052602c916050565b600080546001600160a01b0319166001600160a01b0392909216919091179055607e565b600060208284031215606157600080fd5b81516001600160a01b0381168114607757600080fd5b9392505050565b6102468061008d6000396000f3fe608060405234801561001057600080fd5b50600436106100365760003560e01c80631c0ad6461461003b578063a570e0151461006b575b600080fd5b60005461004e906001600160a01b031681565b6040516001600160a01b0390911681526020015b60405180910390f35b61007e610079366004610162565b61008e565b6040519015158152602001610062565b60008083836040516020016100ba92919091825260f81b6001600160f81b031916602082015260210190565b60408051601f198184030181529082905263d1fde4fb60e01b825291506000906109009063d1fde4fb906100f29085906004016101a9565b602060405180830381865afa15801561010f573d6000803e3d6000fd5b505050506040513d601f19601f8201168201806040525081019061013391906101f7565b905085811461015557604051631ff3747d60e21b815260040160405180910390fd5b5060019695505050505050565b6000806000806080858703121561017857600080fd5b843593506020850135925060408501359150606085013560ff8116811461019e57600080fd5b939692955090935050565b602081526000825180602084015260005b818110156101d757602081860181015160408684010152016101ba565b506000604082850101526040601f19601f83011684010191505092915050565b60006020828403121561020957600080fd5b505191905056fea2646970667358221220f6fa56b89b72dcb100ca21554e067af672ac7cdbcb5cde8f6c7484438ebb7b6064736f6c634300081c0033",
  "linkReferences": {},
  "deployedLinkReferences": {}
}