{
  "_format": "hh-sol-artifact-1",
  "contractName": "VedaLedgerCore",
  "sourceName": "contracts/VedaLedgerCore.sol",
  "abi": [
    {
      "inputs": [],
      "stateMutability": "nonpayable",
      "type": "constructor"
    },
    {
      "inputs": [
        {
          "internalType": "uint8",
          "name": "current",
          "type": "uint8"
        }
      ],
      "name": "InvalidStage",
      "type": "error"
    },
    {
      "inputs": [],
      "name": "MassBalanceViolation",
      "type": "error"
    },
    {
      "inputs": [],
      "name": "PVMOriginRequired",
      "type": "error"
    },
    {
      "inputs": [],
      "name": "Unauthorized",
      "type": "error"
    },
    {
      "anonymous": false,
      "inputs": [
        {
          "indexed": true,
          "internalType": "uint256",
          "name": "batchId",
          "type": "uint256"
        },
        {
          "indexed": false,
          "internalType": "uint32",
          "name": "remainingMg",
          "type": "uint32"
        }
      ],
      "name": "MassBalanceUpdated",
      "type": "event"
    },
    {
      "anonymous": false,
      "inputs": [
        {
          "indexed": true,
          "internalType": "uint256",
          "name": "id",
          "type": "uint256"
        },
        {
          "indexed": true,
          "internalType": "enum VedaLedgerCore.Stage",
          "name": "stage",
          "type": "uint8"
        }
      ],
      "name": "VedaStateChanged",
      "type": "event"
    },
    {
      "inputs": [],
      "name": "admin",
      "outputs": [
        {
          "internalType": "address",
          "name": "",
          "type": "address"
        }
      ],
      "stateMutability": "view",
      "type": "function"
    },
    {
      "inputs": [
        {
          "internalType": "uint256[]",
          "name": "_ids",
          "type": "uint256[]"
        },
        {
          "internalType": "bytes32",
          "name": "_species",
          "type": "bytes32"
        }
      ],
      "name": "aggregateToBatch",
      "outputs": [
        {
          "internalType": "uint256",
          "name": "bId",
          "type": "uint256"
        }
      ],
      "stateMutability": "nonpayable",
      "type": "function"
    },
    {
      "inputs": [
        {
          "internalType": "uint256",
          "name": "",
          "type": "uint256"
        }
      ],
      "name": "batchReportHashes",
      "outputs": [
        {
          "internalType": "bytes32",
          "name": "",
          "type": "bytes32"
        }
      ],
      "stateMutability": "view",
      "type": "function"
    },
    {
      "inputs": [
        {
          "internalType": "uint256",
          "name": "",
          "type": "uint256"
        }
      ],
      "name": "batches",
      "outputs": [
        {
          "internalType": "bytes32",
          "name": "species",
          "type": "bytes32"
        },
        {
          "internalType": "uint32",
          "name": "totalWeightMg",
          "type": "uint32"
        },
        {
          "internalType": "uint32",
          "name": "remainingWeightMg",
          "type": "uint32"
        },
        {
          "internalType": "uint8",
          "name": "avgScore",
          "type": "uint8"
        },
        {
          "internalType": "enum VedaLedgerCore.Stage",
          "name": "stage",
          "type": "uint8"
        }
      ],
      "stateMutability": "view",
      "type": "function"
    },
    {
      "inputs": [
        {
          "internalType": "uint256",
          "name": "_bId",
          "type": "uint256"
        },
        {
          "internalType": "bytes",
          "name": "_rawReport",
          "type": "bytes"
        },
        {
          "internalType": "bool",
          "name": "_pass",
          "type": "bool"
        }
      ],
      "name": "certifyBatch",
      "outputs": [],
      "stateMutability": "nonpayable",
      "type": "function"
    },
    {
      "inputs": [
        {
          "internalType": "uint256",
          "name": "",
          "type": "uint256"
        }
      ],
      "name": "collections",
      "outputs": [
        {
          "internalType": "address",
          "name": "farmer",
          "type": "address"
        },
        {
          "internalType": "enum VedaLedgerCore.Stage",
          "name": "stage",
          "type": "uint8"
        },
        {
          "internalType": "uint8",
          "name": "qualityScore",
          "type": "uint8"
        },
        {
          "internalType": "uint32",
          "name": "quantityKg",
          "type": "uint32"
        },
        {
          "internalType": "uint32",
          "name": "timestamp",
          "type": "uint32"
        },
        {
          "internalType": "bytes32",
          "name": "metadataHash",
          "type": "bytes32"
        }
      ],
      "stateMutability": "view",
      "type": "function"
    },
    {
      "inputs": [
        {
          "internalType": "uint256",
          "name": "_bId",
          "type": "uint256"
        },
        {
          "internalType": "uint32",
          "name": "_count",
          "type": "uint32"
        },
        {
          "internalType": "uint32",
          "name": "_mgPerUnit",
          "type": "uint32"
        }
      ],
      "name": "createProduct",
      "outputs": [],
      "stateMutability": "nonpayable",
      "type": "function"
    },
    {
      "inputs": [],
      "name": "manufacturingContractAddress",
      "outputs": [
        {
          "internalType": "address",
          "name": "",
          "type": "address"
        }
      ],
      "stateMutability": "view",
      "type": "function"
    },
    {
      "inputs": [
        {
          "internalType": "uint256",
          "name": "",
          "type": "uint256"
        }
      ],
      "name": "productQRs",
      "outputs": [
        {
          "internalType": "bytes32",
          "name": "",
          "type": "bytes32"
        }
      ],
      "stateMutability": "view",
      "type": "function"
    },
    {
      "inputs": [
        {
          "internalType": "uint32",
          "name": "_qty",
          "type": "uint32"
        },
        {
          "internalType": "bytes32",
          "name": "_mHash",
          "type": "bytes32"
        },
        {
          "internalType": "uint8",
          "name": "_score",
          "type": "uint8"
        }
      ],
      "name": "recordHarvest",
      "outputs": [],
      "stateMutability": "nonpayable",
      "type": "function"
    },
    {
      "inputs": [
        {
          "internalType": "address",
          "name": "",
          "type": "address"
        }
      ],
      "name": "roles",
      "outputs": [
        {
          "internalType": "uint8",
          "name": "",
          "type": "uint8"
        }
      ],
      "stateMutability": "view",
      "type": "function"
    },
    {
      "inputs": [
        {
          "internalType": "address",
          "name": "_manufacturing",
          "type": "address"
        }
      ],
      "name": "setManufacturingContract",
      "outputs": [],
      "stateMutability": "nonpayable",
      "type": "function"
    },
    {
      "inputs": [
        {
          "internalType": "address",
          "name": "_act",
          "type": "address"
        },
        {
          "internalType": "uint8",
          "name": "_role",
          "type": "uint8"
        }
      ],
      "name": "setRole",
      "outputs": [],
      "stateMutability": "nonpayable",
      "type": "function"
    },
    {
      "inputs": [
        {
          "internalType": "uint256",
          "name": "_id",
          "type": "uint256"
        },
        {
          "internalType": "uint32",
          "name": "_newWeight",
          "type": "uint32"
        },
        {
          "internalType": "uint8",
          "name": "_newStage",
          "type": "uint8"
        }
      ],
      "name": "updateBatchWeight",
      "outputs": [],
      "stateMutability": "nonpayable",
      "type": "function"
    }
  ],
  "bytecode": "0x6080604052348015600f57600080fd5b50600080546001600160a01b031916331790556110cd806100316000396000f3fe608060405234801561001057600080fd5b50600436106100ea5760003560e01c80637c53f2c01161008c578063c3a9e99c11610066578063c3a9e99c1461024c578063c507f6d11461025f578063f851a4401461028a578063fdbda0ec1461029d57600080fd5b80637c53f2c0146101a357806399374642146101b6578063b32c4d8d146101eb57600080fd5b80633fc2997b116100c85780633fc2997b1461014a578063571c3e601461016a5780637000c6a11461017d57806376f6159f1461019057600080fd5b80632600821f146100ef5780632d920d57146101225780632dabed5414610135575b600080fd5b61010f6100fd366004610c43565b60076020526000908152604090205481565b6040519081526020015b60405180910390f35b61010f610130366004610c5c565b610311565b610148610143366004610cf1565b610561565b005b61010f610158366004610c43565b60066020526000908152604090205481565b610148610178366004610d55565b610705565b61014861018b366004610d88565b61075c565b61014861019e366004610dbb565b6107a8565b6101486101b1366004610e4c565b61093a565b6101d96101c4366004610d88565b60026020526000908152604090205460ff1681565b60405160ff9091168152602001610119565b61023b6101f9366004610c43565b6005602052600090815260409020805460019091015463ffffffff8082169164010000000081049091169060ff600160401b8204811691600160481b90041685565b604051610119959493929190610eb7565b61014861025a366004610ef2565b6109ed565b600154610272906001600160a01b031681565b6040516001600160a01b039091168152602001610119565b600054610272906001600160a01b031681565b6102ff6102ab366004610c43565b600460205260009081526040902080546001909101546001600160a01b0382169160ff600160a01b8204811692600160a81b83049091169163ffffffff600160b01b8204811692600160d01b909204169086565b60405161011996959493929190610f25565b33600090815260026020819052604082205460ff168114610344576040516282b42960e81b815260040160405180910390fd5b60008060005b86811015610443576000600460008a8a8581811061036a5761036a610f6d565b90506020020135815260200190815260200160002090506000600581111561039457610394610e7f565b8154600160a01b900460ff1660058111156103b1576103b1610e7f565b146103f6578054600160a01b900460ff1660058111156103d3576103d3610e7f565b604051634aaff55b60e11b815260ff909116600482015260240160405180910390fd5b805460ff60a01b1916600160a01b1780825561041f90600160b01b900463ffffffff1685610f99565b815490945061043890600160a81b900460ff1684610fbb565b92505060010161034a565b50604080514260208201526bffffffffffffffffffffffff193360601b169181019190915260540160408051601f1981840301815291905280516020909101209350600061049483620f4240610fce565b6000868152600560205260409020878155600101805464010000000063ffffffff841690810267ffffffffffffffff199092161717905590506104d78783610ff4565b600086815260056020526040902060018101805460ff93909316600160401b0260ff60481b191669ffff00000000000000001990931692909217600160481b17909155610528906002018989610be3565b50600160405186907f45753451eded77e05a2d979ed1bf400d4f6c1735cad995d05ed57e9988c25d5290600090a3505050509392505050565b3360009081526002602052604090205460049060ff168114610595576040516282b42960e81b815260040160405180910390fd5b600084815260056020526040902060026001820154600160481b900460ff1660058111156105c5576105c5610e7f565b141580156105f3575060046001820154600160481b900460ff1660058111156105f0576105f0610e7f565b14155b15610618576001810154600160481b900460ff1660058111156103d3576103d3610e7f565b60006106248486610fce565b600183015490915063ffffffff80831664010000000090920416101561065d576040516365d6dbff60e11b815260040160405180910390fd5b808260010160048282829054906101000a900463ffffffff166106809190611016565b82546101009290920a63ffffffff818102199093169183160217909155600184018054690500000000000000000060ff60481b19909116179081905560405164010000000090910490911681528791507f22b268e6545370c5a232e4733b21861634de69050aec67f2a9576a6ebba66f4f9060200160405180910390a2505050505050565b6000546001600160a01b0316331461072f576040516282b42960e81b815260040160405180910390fd5b6001600160a01b03919091166000908152600260205260409020805460ff191660ff909216919091179055565b6000546001600160a01b03163314610786576040516282b42960e81b815260040160405180910390fd5b600180546001600160a01b0319166001600160a01b0392909216919091179055565b3360009081526002602052604090205460039060ff1681146107dc576040516282b42960e81b815260040160405180910390fd5b6000858152600560205260409020600180820154600160481b900460ff16600581111561080b5761080b610e7f565b14610830576001810154600160481b900460ff1660058111156103d3576103d3610e7f565b60405163d1fde4fb60e01b81526000906109009063d1fde4fb9061085a9089908990600401611032565b602060405180830381865afa158015610877573d6000803e3d6000fd5b505050506040513d601f19601f8201168201806040525081019061089b9190611061565b60008881526007602052604090208190559050836108ba5760036108bd565b60025b60018301805460ff60481b1916600160481b8360058111156108e1576108e1610e7f565b02179055506001820154600160481b900460ff16600581111561090657610906610e7f565b60405188907f45753451eded77e05a2d979ed1bf400d4f6c1735cad995d05ed57e9988c25d5290600090a350505050505050565b6001546001600160a01b03163314610964576040516282b42960e81b815260040160405180910390fd5b6000838152600560208190526040909120600101805467ffffffff00000000191664010000000063ffffffff86160217905560ff8216908111156109aa576109aa610e7f565b60008481526005602081905260409091206001018054909160ff60481b1990911690600160481b9084908111156109e3576109e3610e7f565b0217905550505050565b3360009081526002602052604090205460019060ff168114610a21576040516282b42960e81b815260040160405180910390fd5b6109006001600160a01b0316639098d8c16040518163ffffffff1660e01b8152600401602060405180830381865afa158015610a61573d6000803e3d6000fd5b505050506040513d601f19601f82011682018060405250810190610a85919061107a565b610aa25760405163a0b9d0fb60e01b815260040160405180910390fd5b60038054600101908190556040805160c0810182523381526000602080830182815260ff88168486015263ffffffff8a811660608601524216608085015260a084018990528583526004909152929020815181546001600160a01b039091166001600160a01b03198216811783559351929391929183916001600160a81b03191617600160a01b836005811115610b3b57610b3b610e7f565b0217905550604082015181546060840151608085015163ffffffff908116600160d01b0263ffffffff60d01b1991909216600160b01b0263ffffffff60b01b1960ff909516600160a81b029490941664ffffffffff60a81b1990931692909217929092171617815560a090910151600190910155600060405182907f45753451eded77e05a2d979ed1bf400d4f6c1735cad995d05ed57e9988c25d5290600090a35050505050565b828054828255906000526020600020908101928215610c1e579160200282015b82811115610c1e578235825591602001919060010190610c03565b50610c2a929150610c2e565b5090565b5b80821115610c2a5760008155600101610c2f565b600060208284031215610c5557600080fd5b5035919050565b600080600060408486031215610c7157600080fd5b833567ffffffffffffffff811115610c8857600080fd5b8401601f81018613610c9957600080fd5b803567ffffffffffffffff811115610cb057600080fd5b8660208260051b8401011115610cc557600080fd5b6020918201979096509401359392505050565b803563ffffffff81168114610cec57600080fd5b919050565b600080600060608486031215610d0657600080fd5b83359250610d1660208501610cd8565b9150610d2460408501610cd8565b90509250925092565b80356001600160a01b0381168114610cec57600080fd5b803560ff81168114610cec57600080fd5b60008060408385031215610d6857600080fd5b610d7183610d2d565b9150610d7f60208401610d44565b90509250929050565b600060208284031215610d9a57600080fd5b610da382610d2d565b9392505050565b8015158114610db857600080fd5b50565b60008060008060608587031215610dd157600080fd5b84359350602085013567ffffffffffffffff811115610def57600080fd5b8501601f81018713610e0057600080fd5b803567ffffffffffffffff811115610e1757600080fd5b876020828401011115610e2957600080fd5b602091909101935091506040850135610e4181610daa565b939692955090935050565b600080600060608486031215610e6157600080fd5b83359250610e7160208501610cd8565b9150610d2460408501610d44565b634e487b7160e01b600052602160045260246000fd5b60068110610eb357634e487b7160e01b600052602160045260246000fd5b9052565b85815263ffffffff85811660208301528416604082015260ff8316606082015260a08101610ee86080830184610e95565b9695505050505050565b600080600060608486031215610f0757600080fd5b610f1084610cd8565b925060208401359150610d2460408501610d44565b6001600160a01b038716815260c08101610f426020830188610e95565b60ff95909516604082015263ffffffff938416606082015291909216608082015260a0015292915050565b634e487b7160e01b600052603260045260246000fd5b634e487b7160e01b600052601160045260246000fd5b63ffffffff8181168382160190811115610fb557610fb5610f83565b92915050565b80820180821115610fb557610fb5610f83565b63ffffffff8181168382160290811690818114610fed57610fed610f83565b5092915050565b60008261101157634e487b7160e01b600052601260045260246000fd5b500490565b63ffffffff8281168282160390811115610fb557610fb5610f83565b60208152816020820152818360408301376000818301604090810191909152601f909201601f19160101919050565b60006020828403121561107357600080fd5b5051919050565b60006020828403121561108c57600080fd5b8151610da381610daa56fea26469706673582212207049a92c71dab47153f1d0f173f589197a4fcc0b86e0ea4ec30ee175af96021c64736f6c634300081c0033",
  "linkReferences": {},
  "deployedLinkReferences": {}
}