{
  "_format": "hh-sol-artifact-1",
  "contractName": "VedaLedgerManufacturing",
  "sourceName": "contracts/VedaLedgerManufacturing.sol",
  "abi": [
    {
      "inputs": [
        {
          "internalType": "address",
          "name": "_coreAddress",
          "type": "address"
        }
      ],
      "stateMutability": "nonpayable",
      "type": "constructor"
    },
    {
      "inputs": [],
      "name": "BatchNotTested",
      "type": "error"
    },
    {
      "inputs": [],
      "name": "InsufficientRawMaterial",
      "type": "error"
    },
    {
      "inputs": [],
      "name": "Unauthorized",
      "type": "error"
    },
    {
      "anonymous": false,
      "inputs": [
        {
          "indexed": true,
          "internalType": "uint256",
          "name": "batchId",
          "type": "uint256"
        },
        {
          "indexed": false,
          "internalType": "uint32",
          "name": "unitsCreated",
          "type": "uint32"
        },
        {
          "indexed": false,
          "internalType": "uint32",
          "name": "mgConsumed",
          "type": "uint32"
        }
      ],
      "name": "ProductsManifested",
      "type": "event"
    },
    {
      "inputs": [],
      "name": "admin",
      "outputs": [
        {
          "internalType": "address",
          "name": "",
          "type": "address"
        }
      ],
      "stateMutability": "view",
      "type": "function"
    },
    {
      "inputs": [],
      "name": "coreContract",
      "outputs": [
        {
          "internalType": "contract IVedaCore",
          "name": "",
          "type": "address"
        }
      ],
      "stateMutability": "view",
      "type": "function"
    },
    {
      "inputs": [
        {
          "internalType": "bytes32",
          "name": "",
          "type": "bytes32"
        }
      ],
      "name": "extractionRatios",
      "outputs": [
        {
          "internalType": "uint32",
          "name": "",
          "type": "uint32"
        }
      ],
      "stateMutability": "view",
      "type": "function"
    },
    {
      "inputs": [
        {
          "internalType": "uint256",
          "name": "_batchId",
          "type": "uint256"
        },
        {
          "internalType": "uint32",
          "name": "_unitCount",
          "type": "uint32"
        },
        {
          "internalType": "uint32",
          "name": "_mgPerUnit",
          "type": "uint32"
        }
      ],
      "name": "manifestProducts",
      "outputs": [],
      "stateMutability": "nonpayable",
      "type": "function"
    },
    {
      "inputs": [
        {
          "internalType": "string",
          "name": "_species",
          "type": "string"
        },
        {
          "internalType": "uint32",
          "name": "_ratio",
          "type": "uint32"
        }
      ],
      "name": "setExtractionRatio",
      "outputs": [],
      "stateMutability": "nonpayable",
      "type": "function"
    }
  ],
  "bytecode": "0x608060405234801561001057600080fd5b5060405161072b38038061072b83398101604081905261002f916100e4565b600080546001600160a01b039092166001600160a01b031992831617815560018054909216331790915560026020527fba6da15382175a58c80ec37a11a87ab73c018cc0d20e7d663192b8d5ae740c25805463ffffffff199081166005179091557f49f1e0404030f385f8413d257d9061530445b2ef7c1a4b11abddc36559d41eec9091527f6893855f02810a15cea9587dd1833f73db3372991503803e9d24a3a3605823d080549091166004179055610114565b6000602082840312156100f657600080fd5b81516001600160a01b038116811461010d57600080fd5b9392505050565b610608806101236000396000f3fe608060405234801561001057600080fd5b50600436106100575760003560e01c806305b5a2021461005c57806378fff093146100715780637f62a04f146100b1578063e80db5db146100c4578063f851a440146100ef575b600080fd5b61006f61006a366004610396565b610102565b005b61009761007f3660046103d8565b60026020526000908152604090205463ffffffff1681565b60405163ffffffff90911681526020015b60405180910390f35b61006f6100bf366004610407565b6102eb565b6000546100d7906001600160a01b031681565b6040516001600160a01b0390911681526020016100a8565b6001546100d7906001600160a01b031681565b6000805460405163b32c4d8d60e01b815260048101869052829182916001600160a01b039091169063b32c4d8d9060240160a060405180830381865afa158015610150573d6000803e3d6000fd5b505050506040513d601f19601f8201168201806040525081019061017491906104e2565b945050935050925060028160ff1610156101a1576040516328c5ca4160e11b815260040160405180910390fd5b60008381526002602052604081205463ffffffff16156101d55760008481526002602052604090205463ffffffff166101d8565b60015b90506000816101e7878961055b565b6101f1919061055b565b90508063ffffffff168463ffffffff161015610220576040516341fe2ef960e01b815260040160405180910390fd5b600061022c8286610581565b6000546040516301f14fcb60e61b8152600481018c905263ffffffff83166024820152600560448201529192506001600160a01b031690637c53f2c090606401600060405180830381600087803b15801561028657600080fd5b505af115801561029a573d6000803e3d6000fd5b50506040805163ffffffff808d168252861660208201528c93507f18f250afbc35a8e20db879ab7a82b8d709280aa3eb754e502ba15258b7a27a4492500160405180910390a2505050505050505050565b6001546001600160a01b03163314610315576040516282b42960e81b815260040160405180910390fd5b80600260008460405160200161032b91906105a3565b60405160208183030381529060405280519060200120815260200190815260200160002060006101000a81548163ffffffff021916908363ffffffff1602179055505050565b63ffffffff8116811461038357600080fd5b50565b803561039181610371565b919050565b6000806000606084860312156103ab57600080fd5b8335925060208401356103bd81610371565b915060408401356103cd81610371565b809150509250925092565b6000602082840312156103ea57600080fd5b5035919050565b634e487b7160e01b600052604160045260246000fd5b6000806040838503121561041a57600080fd5b823567ffffffffffffffff81111561043157600080fd5b8301601f8101851361044257600080fd5b803567ffffffffffffffff81111561045c5761045c6103f1565b604051601f8201601f19908116603f0116810167ffffffffffffffff8111828210171561048b5761048b6103f1565b6040528181528282016020018710156104a357600080fd5b816020840160208301376000602083830101528094505050506104c860208401610386565b90509250929050565b805160ff8116811461039157600080fd5b600080600080600060a086880312156104fa57600080fd5b85519450602086015161050c81610371565b604087015190945061051d81610371565b925061052b606087016104d1565b9150610539608087016104d1565b90509295509295909350565b634e487b7160e01b600052601160045260246000fd5b63ffffffff818116838216029081169081811461057a5761057a610545565b5092915050565b63ffffffff828116828216039081111561059d5761059d610545565b92915050565b6000825160005b818110156105c457602081860181015185830152016105aa565b50600092019182525091905056fea2646970667358221220c91f932ffef9d52be0c002d67665260f97bf672614973161ebec843f0393e40d64736f6c634300081c0033",
  "linkReferences": {},
  "deployedLinkReferences": {}
}